:020000040800F2
:1000000000900020CD2D0008C1070008C30700089C
:1000100000000000000000000000000000000000E0
:10002000000000000000000000000000C5070008FC
:100030000000000000000000C7070008C907000812
:100040001D2E0008000000001D2E0008D10700082A
:10005000D90700081D2E00081D2E00081D2E0008BF
:10006000000000001D2E00081D2E00081D2E000897
:100070001D2E00081D2E00081D2E00080000000087
:10008000DD0700081D2E00081D2E00081D2E00088B
:100090001D2E00081D2E00081D2E00081D2E000814
:1000A0001D2E00081D2E00081D2E0008ED0700085B
:0800B000FD0700081D2E0008E9
:1000B80010B5064C2378002B07D1054B002B02D036
:1000C800044800E000BF0123237010BD7400002025
:1000D8000000000068370008044B10B5002B03D05F
:1000E8000349044800E000BF10BDC04600000000FE
:1000F80078000020683700080023C25C0133002A1A
:10010800FBD1581E7047000003B4714649084000EF
:100118004900095E49008E4403BC70470022430829
:100128008B4274D303098B425FD3030A8B4244D3B7
:10013800030B8B4228D3030C8B420DD3FF220902F9
:1001480012BA030C8B4202D31212090265D0030BB8
:100158008B4219D300E0090AC30B8B4201D3CB03AE
:10016800C01A5241830B8B4201D38B03C01A5241F0
:10017800430B8B4201D34B03C01A5241030B8B42F2
:1001880001D30B03C01A5241C30A8B4201D3CB02DD
:10019800C01A5241830A8B4201D38B02C01A5241C2
:1001A800430A8B4201D34B02C01A5241030A8B42C5
:1001B80001D30B02C01A5241CDD2C3098B4201D3DD
:1001C800CB01C01A524183098B4201D38B01C01A5B
:1001D800524143098B4201D34B01C01A52410309D2
:1001E8008B4201D30B01C01A5241C3088B4201D381
:1001F800CB00C01A524183088B4201D38B00C01A2E
:10020800524143088B4201D34B00C01A5241411A54
:1002180000D20146524110467047FFE701B5002061
:1002280000F0F0F802BDC0460029F7D076E7704725
:1002380003460B437FD4002243088B4274D303093F
:100248008B425FD3030A8B4244D3030B8B4228D3E0
:10025800030C8B420DD3FF22090212BA030C8B4206
:1002680002D31212090265D0030B8B4219D300E0A6
:10027800090AC30B8B4201D3CB03C01A5241830B2B
:100288008B4201D38B03C01A5241430B8B4201D3DB
:100298004B03C01A5241030B8B4201D30B03C01A04
:1002A8005241C30A8B4201D3CB02C01A5241830A7E
:1002B8008B4201D38B02C01A5241430A8B4201D3AD
:1002C8004B02C01A5241030A8B4201D30B02C01AD7
:1002D8005241CDD2C3098B4201D3CB01C01A52413E
:1002E80083098B4201D38B01C01A524143098B42C7
:1002F80001D34B01C01A524103098B4201D30B01B0
:10030800C01A5241C3088B4201D3CB00C01A5241D4
:1003180083088B4201D38B00C01A524143088B4299
:1003280001D34B00C01A5241411A00D20146524132
:10033800104670475DE0CA0F00D04942031000D351
:100348004042534000229C4603098B422DD3030AA6
:100358008B4212D3FC22890112BA030A8B420CD3B6
:10036800890192118B4208D3890192118B4204D3DF
:1003780089013AD0921100E08909C3098B4201D35F
:10038800CB01C01A524183098B4201D38B01C01A99
:10039800524143098B4201D34B01C01A5241030910
:1003A8008B4201D30B01C01A5241C3088B4201D3BF
:1003B800CB00C01A524183088B4201D38B00C01A6C
:1003C8005241D9D243088B4201D34B00C01A524143
:1003D800411A00D20146634652415B10104601D3D0
:1003E8004042002B00D54942704763465B1000D35A
:1003F800404201B5002000F005F802BD0029F8D000
:1004080016E770477047C04670B586B014220021C1
:1004180001A802F025FD0E4B5A6B012422435A63B2
:100428005B6B23400093009B80263602A025ED05D8
:1004380000223100280002F04BFB0196029403943D
:100448000323049301A9280002F086FA06B070BDC0
:100458000010024010B50268084B9A4200D010BD47
:10046800074C01222100074801F0E0FC064A1378F6
:1004780020780649C85401331370F0E7004400405F
:1004880072020020A4010020730200204002002014
:100498000268094B9A4200D07047084A1378013322
:1004A800DBB21370032BF7D1054B01221A70034BF3
:1004B80000221A70F0E7C04600040040380200200D
:1004C8003902002010B5084B984201D0002308E0FB
:1004D800064B00221A70F9E7C21800241470013381
:1004E8009BB28B42F8D310BD40020020730200205B
:1004F80072B6FEE710B51748174B0360E1235B029D
:10050800436000238360C36003610C2242618361FE
:10051800C36103624362836201F09EFB002811D12C
:1005280000210C4801F000FD00280DD100210948E8
:1005380001F020FD002809D1064801F0D5FC00286B
:1005480006D110BDFFF7D4FFFFF7D2FFFFF7D0FFAA
:10055800FFF7CEFFA40100200044004000B589B099
:100568001022002104A802F07BFC0C22002101A823
:1005780002F076FC1548164B0360FA239B01436092
:1005880000238360134AC26003618033836100F0F3
:100598008FFB002813D180235B01049304A90B4827
:1005A80000F0C2FB00280CD100230193039301A99A
:1005B800064800F03DFC002805D109B000BDFFF752
:1005C80097FFFFF795FFFFF793FFC046C400002091
:1005D80000040040E703000010B51748174B0360FC
:1005E800E1235B02436000238360C36003610C2244
:1005F80042618361C36103624362836201F02CFB41
:10060800002811D100210C4801F08EFC00280DD1E2
:100618000021094801F0AEFC002809D1064801F084
:1006280063FC002806D110BDFFF762FFFFF760FFEB
:10063800FFF75EFFFFF75CFF100100200038014064
:1006480000B593B03422002105A802F009FC10225D
:10065800002101A802F004FC8020800002F0BEFA0C
:1006680002230593FE3308930023099340220A923C
:100678000C9305A801F0A6FC00280DD107230193CF
:100688000023029303930493002101A801F048FF7B
:10069800002803D113B000BDFFF72AFFFFF728FF9A
:1006A800F0B5C64600B588B002F046FBFFF7C8FFB4
:1006B800FFF7AAFEFFF71EFFFFF750FFFFF78CFFBB
:1006C8002F4800F0B3F901222E492F4801F0AEFB64
:1006D80045E019009F782D4B1F70CB789C462C4B1A
:1006E800604618700B7998462A4B404618708C79EA
:1006F800487900022043284B18800C7ACD792D02C6
:100708002543264B1D808E7A4B7A1B021E43244BB1
:100718001E804B78C97A234C069105960495039060
:10072800414602916146019100971F49200002F05D
:100738009FFB2000FFF7E0FCFA2382B29B00210018
:100748001A4801F0D7F932212000FFF7BBFE322109
:100758001748FFF7B7FEFA20800002F013FBFA23D0
:100768009B0004221349084801F0C4F9FA2040000C
:1007780002F008FB0E4B1A78002AAAD1E7E7C04618
:10078800C400002072020020A40100203A020020C8
:100798003C0200203B020020740200207602002068
:1007A8007802002090000020803700081001002007
:1007B8004002002000000020FEE7FEE77047704777
:1007C80010B502F0CDFA10BD10B502F053F810BD07
:1007D8007047000010B5024800F064F910BDC0462B
:1007E800C400002010B5024800F0B6FB10BDC0469A
:1007F8001001002010B5024800F0AEFB10BDC04645
:10080800A401002000B583B0134B196C01221143D9
:100818001964196C0A400092009ADA6B8021490524
:100828000A43DA63DB6B0B400193019B0022002132
:10083800032002F0FDF9032002F02AFA0022002129
:10084800042002F0F5F9042002F022FAC020C000CA
:1008580002F0AAFA03B000BD0010024000B583B050
:1008680002680B4B9A4201D003B000BD094AD16B14
:1008780002231943D163D26B13400193019B0022D9
:100888000221102002F0D4F9102002F001FAEBE75F
:100898000004004000100240F0B591B0040014229A
:1008A80000210BA802F0DCFA1C22002104A802F0A7
:1008B800D7FA2368414A934204D0414A93424BD025
:1008C80011B0F0BD0123049304A801F009FF00282A
:1008D8003FD13C4B196C8020C001014319641A6C4C
:1008E80002400092009A5A6B012422435A635B6BC0
:1008F80023400193019B80239B000B9302250C95B9
:100908000D9403270E970F94A026F6050BA9300027
:1009180002F022F88023DB000B930C950D950E97BF
:100928000F940BA9300002F017F8274B19688022A2
:10093800D2030A431A601968802212040A431A6013
:10094800002201211B2002F073F91B2002F0A0F9FC
:10095800B6E7FFF7CDFDBCE70223049304A801F036
:10096800BFFE002827D1174BD96B80208002014396
:10097800D963DA6B02400292029A596B0122114341
:1009880059635B6B13400393039B0C230B930A3B44
:100998000C930D9301330E930F92A0200BA9C00561
:1009A80001F0DAFF002200211C2002F041F91C208E
:1009B80002F06EF984E7FFF79BFDD4E700380140A9
:1009C80000440040001002400000014030B5036AB6
:1009D800046A0125AC4304628469EF35AC43120113
:1009E80022430A24A3430B438261036230BD000003
:1009F80030B5036A1024A34303628469036A054D72
:100A08002C4012032243A024A34309011943826105
:100A1800016230BDFF0FFFFF8368034A13400B4399
:100A280007210B43836070478FFFCFFF3D23C35CD3
:100A3800012B25D13C330222C2540268D36801211C
:100A48000B43D3600368114A93420BD0104A934278
:100A580008D0104A934205D01A6801210A431A6047
:100A680000200EE09A680C490A40062A0AD0073985
:100A78008A4209D01A6801210A431A60002000E05E
:100A8800012070470020FCE70020FAE7002C014015
:100A98000004004000400140070001007047704713
:100AA8007047704710B5040003681A6992070FD59C
:100AB800DA6892070CD5032252421A6101230377A0
:100AC80003689B699B076AD0FFF7E9FF0023237738
:100AD80023681A69520712D5DA6852070FD505221A
:100AE80052421A610223237723689A69C0239B0024
:100AF8001A425AD02000FFF7D2FF00232377236839
:100B08001A69120710D5DA6812070DD50922524260
:100B18001A61042323772368DB699B074CD02000E4
:100B2800FFF7BDFF0023237723681A69D20612D581
:100B3800DA68D2060FD5112252421A6108232377A8
:100B48002368DA69C0239B001A423CD02000FFF7D3
:100B5800A6FF0023237723681A69D20702D5DA682B
:100B6800D20737D423681A69120602D5DA68120642
:100B780037D423681A69D20502D5DA68120637D441
:100B880023681A69520602D5DA68520636D42368F1
:100B98001A69920602D5DA68920636D410BDFFF7B4
:100BA8007DFF2000FFF77CFF90E72000FFF776FF2E
:100BB8002000FFF775FFA0E72000FFF76FFF200078
:100BC800FFF76EFFAEE72000FFF768FF2000FFF792
:100BD80067FFBEE7022252421A612000FFF758FC65
:100BE800C0E7812252421A61200000F05EF9C0E796
:100BF800094A1A61200000F059F9C1E7412252421E
:100C08001A612000FFF74DFFC1E7212252421A6105
:100C1800200000F049F9C1E7FFFEFFFF03681D4A05
:100C2800904202D01C4A904203D1702293434A68F2
:100C38001343184A90420ED0174A90420BD0174AD5
:100C4800904208D0164A904205D0164A904202D0E7
:100C5800154A904203D1154A1340CA6813438022AB
:100C680093434A69134303608B68C3620B688362CA
:100C7800084B984208D00A4B984205D0094B984235
:100C880002D0094B984201D10B69036301234361E8
:100C98007047C046002C014000040040002000407E
:100CA800004001400044014000480140FFFCFFFFB4
:100CB80070B5041E2AD03D23C35C002B20D03D25EF
:100CC80002236355210001C9FFF7A8FF0123482229
:100CD800A3540A3AA3540132A3540132A354013253
:100CE800A3540132A3540132A3540132A354013254
:100CF800A3540132A3540132A3546355002070BD9C
:100D08003C330022C254FFF7A9FDD8E70120F6E7DB
:100D180030B58468034D2C401B0213430B43234317
:100D2800836030BDFF00FFFF10B504003C23C35CA7
:100D3800012B00D178E03C230122C2540133013257
:100D4800C254026893683948034093600B68602B6B
:100D580050D02AD8402B58D00CD9502B23D1CA6850
:100D680049682068FFF732FE50212068FFF754FEDB
:100D7800002005E0202B0ED009D9302B0BD0012004
:100D88003D230122E254013B0022E25410BD002B16
:100D980001D0102B05D119002068FFF73DFE002077
:100DA800EEE70120ECE70120EAE7802252019342B6
:100DB80036D08022920193420DD1CB684A68896867
:100DC8002068FFF7A5FF226891688023DB010B43A9
:100DD80093600020D4E7702B24D1CB684A688968D7
:100DE8002068FFF795FF2268936877210B4393608B
:100DF8000020C5E7CA6849682068FFF7F9FD602147
:100E08002068FFF709FE0020BAE7CA684968206829
:100E1800FFF7DCFD40212068FFF7FEFD0020AFE76B
:100E28000020ADE70120ABE70220AFE78800CEFF46
:100E380030B53C23C35C012B2CD03C230122C25487
:100E480001330132C254026853689468124DAA42B1
:100E58001BD07025AB430D682B43536003680E4AC3
:100E6800934205D00D4A934202D00D4A934204D1D1
:100E7800802294438A6814439C603D230122C25413
:100E8800013B0022C254002030BD064D2B404D6866
:100E98002B43DEE70220F7E7002C01400004004066
:100EA80000400140FFFF0FFF704770477047000088
:100EB80030B5EFF31084012282F3108801680B68C3
:100EC800124D2B400B6084F31088EFF3108182F3EE
:100ED8001088026893680E4C2340936081F3108851
:100EE800C36E012B06D08C232022C2500023C36678
:100EF800436730BDEFF3108183F3108802681368ED
:100F08001024A343136081F31088ECE7DFFEFFFF92
:100F1800FEFFFFEF704710B5EFF31081012383F355
:100F28001088026813684024A343136081F3108873
:100F380088232022C25000238367FFF7EBFF10BDF0
:100F4800704710B5806A00235E228352083A8352A4
:100F5800FFF7F6FF10BD7047F8B504000268D369C3
:100F680010689568BD491E000E400B4205D19906D0
:100F780003D581062CD4E9002AD4002E07D0B8491D
:100F88002E000E400D4229D1B649084226D1E16E05
:100F9800012900D1AAE0D90202D5690200D543E1AE
:100FA8001A0605D5020600D545E12A0200D542E118
:100FB8005A0602D5420600D544E11A0202D542007B
:100FC80000D543E1DB0102D5002800DA42E1F8BD93
:100FD800636F002BFBD020009847F8E7D90707D5A7
:100FE800C10505D501271762902162583A4362501E
:100FF8009A0709D5EA0707D52268022111628E31BE
:10100800625804273A4362505A0709D5EA0707D5B8
:101018002268042111628C31625802273A436250D7
:101028001A070AD5820601D4002E06D0226808269F
:10103800166290216258324362501A050AD542015D
:1010480008D5226880210901116290216258202662
:10105800324362509022A258002AB8D09B0608D585
:10106800830601D4EB0004D5636F002B01D0200068
:1010780098479023E25823689B685B0602D428238C
:1010880013422CD02000FFF713FF23689B685B06F0
:1010980021D5EFF31081012383F310882268936828
:1010A80040208343936081F310888023E358002B0A
:1010B8000DD06D4A9A638023E05801F04FFD002857
:1010C80000D184E78023E058836B98477FE72000AE
:1010D800FFF736FF7BE72000FFF732FF77E72000B6
:1010E800FFF72EFF90230022E25070E7D90600D4C4
:1010F80051E7C10600D44EE71023136223689B68AA
:101108005B0655D58023E25813685B689BB2002BB9
:1011180000D15CE75C21615A994200D857E75E210B
:10112800635213681B689B060BD5022323675A3347
:10113800E15A0233E35AC91A89B22000FFF70BFFBC
:1011480045E7EFF31080012383F3108821680A68CC
:10115800464D2A400A6080F31088EFF3108083F32D
:10116800108821688A689A438A6080F31088EFF3B0
:10117800108083F3108821688A684235FF35AA43B6
:101188008A6080F310888C222021A1500022E26618
:10119800EFF3108183F310882268136810208343CB
:1011A800136081F310888023E05801F097FCBCE7B6
:1011B8005C23E15A0233E25A891A89B2E35A9BB294
:1011C800002B00D103E7002900D100E7EFF31085D9
:1011D800012383F3108820680268254E324002609C
:1011E80085F31088EFF3108583F3108820688268F0
:1011F800204E3240826085F310888C222020A05037
:101208000022E2666267EFF3108083F31088226899
:1012180013681025AB43136080F3108802232367FB
:101228002000FFF798FED2E680235B0313622000BC
:1012380000F056FECBE6A36F002B00D1C7E62000D6
:101248009847C4E62000FFF766FEC0E6200000F0DD
:1012580049FEBCE6200000F044FEB8E60F08000096
:1012680001000010200100044B0F0008FFFEFFFFE3
:10127800DFFEFFFFFEFFFFEF10B56023C35A8C228D
:101288008258222A05D00268936908210B4393618A
:1012980010BD0268526ADBB21340826D1370836D11
:1012A800013383655E22835A013B9BB28352835A82
:1012B8009BB2002BECD1EFF3108C5D3A82F31088CF
:1012C80001680B68194C23400B608CF31088EFF30E
:1012D800108C82F3108801688B6893438B608CF3C1
:1012E80010888C231F32C250002343670367C36EE4
:1012F800012B17D10023C366EFF31084013383F366
:10130800108801680B68103A93430B6084F31088C7
:101318000368D9690A4200D01A625C23C15AFFF7F0
:101328001AFEB5E7FFF796F8B2E7C046DFFEFFFF03
:1013380010B56023C25A2C33C358222B05D002683B
:10134800936908210B43936110BD03685B6A1340DE
:10135800826D1380836D023383655E22835A013B5D
:101368009BB28352835A9BB2002BEDD1EFF3108CC2
:101378005D3A82F3108801680B68194C23400B60B2
:101388008CF31088EFF3108C82F3108801688B6857
:1013980093438B608CF310888C231F32C250002338
:1013A80043670367C36E012B17D10023C366EFF3AE
:1013B8001084013383F3108801680B68103A934353
:1013C8000B6084F310880368D9690A4200D01A6256
:1013D8005C23C15AFFF7BFFDB6E7FFF73BF8B3E759
:1013E800DFFEFFFFF0B5CE46474680B583B0040068
:1013F8006023C35A01930368DD691A6890469A68A6
:1014080091468C228258222A08D09A6908210A43D8
:101418009A6103B0C0BCB946B046F0BD6823C65A4D
:1014280040E09023E358002B79D15E23E35A9BB226
:10143800002B37D1EFF31080012282F31088216846
:101448000B684F4F3B400B6080F31088EFF310811F
:1014580082F31088226893684A480340936081F3B6
:1014680010888C232022E250002363672367E36EF1
:10147800012B5BD10023E366EFF31080013383F384
:10148800108821680B68103A93430B6080F310882A
:101498002368D9690A4200D01A625C23E15A200005
:1014A800FFF759FD002E45D0AB0643D523685B6A8C
:1014B8006A4612791340A26D1370A36D0133A365B8
:1014C8005E22A35A013B9BB2A3522368DD696A07D7
:1014D800ABD0EA0708D54246D20505D501211962E5
:1014E8009022A3580B43A350AB070AD54B46DB0702
:1014F80007D5236802221A628E32A35804210B43AF
:10150800A3506B078DD54B46DB078AD52368042289
:101518001A628C32A35802210B43A35081E72000A2
:10152800FFF70EFD90230022E2507EE72000FEF731
:1015380091FFB7E75E23E35A9BB2002B00D168E71F
:101548006822A25A9A4200D863E7EFF3108001227A
:1015580082F3108821688B680B4D2B408B6080F3D9
:1015680010880A4B6367EFF3108182F310882268B2
:10157800136820200343136081F3108849E7C046AD
:10158800FFFEFFFFFEFFFFEFFFFFFFEF81120008E6
:10159800F8B5DE4657464E464546E0B5040060239A
:1015A800C55A0368DF691A6890469A6891468C2282
:1015B8008258222A09D09A6908210A439A61F0BC04
:1015C800BB46B246A946A046F8BD6823C65A43E0C2
:1015D8009023E358002B7AD15E23E35A9BB2002B69
:1015E8003AD1EFF3108001339B4683F310882168CA
:1015F8000B689A464E4B52461A400A6080F3108890
:10160800EFF310818BF310882268936849480340F0
:10161800936081F310888C232022E25000236367B3
:101628002367E36E012B59D10023E366EFF31080A3
:10163800013383F3108821680B68103A93430B60D9
:1016480080F310882368D9690A4200D01A625C23A3
:10165800E15A2000FFF77FFC002E43D0BB0641D59E
:1016680023685B6A2B40A26D1380A36D0233A365C8
:101678005E22A35A013B9BB2A3522368DF697A0713
:10168800AAD0FA0708D54246D20505D50121196224
:101698009022A3580B43A350BB070AD54B46DB0740
:1016A80007D5236802221A628E32A35804210B43FD
:1016B800A3507B078CD54B46DB0789D523680422CA
:1016C8001A628C32A35802210B43A35080E72000F2
:1016D800FFF736FC90230022E2507DE72000FEF75A
:1016E800B9FEB9E75E23E35A9BB2002B00D166E747
:1016F8006822A25A9A4200D861E7EFF310800122CB
:1017080082F3108821688B680B4D2B408B6080F327
:1017180010880A4B6367EFF3108182F31088226800
:10172800136820200343136081F3108847E7C046FD
:10173800FFFEFFFFFEFFFFEFFFFFFFEF391300087B
:1017480010B5040083680269134342691343C269F0
:10175800134301680A686B48024013430B60226810
:10176800536869490B40E1680B435360226AA369D7
:101778001A4321688B686548034013438B602268CD
:10178800D36A0F218B43616A0B43D3622368604A93
:1017980093420AD05F4A93423ED05F4A93425CD05C
:1017A8005E4A934249D010230BE05D4B5A6D0323E8
:1017B8001340022B43D02BD8002B42D0012B42D10F
:1017C8000333E06980221202904248D0042B00D1F2
:1017D80091E07AD8002B00D186E0022B73D15148D2
:1017E800636A5B00504A995AFEF798FC63685B0885
:1017F800C0186168FEF792FC0200103A4B4B9A42FF
:1018080000D97DE023680004000CD860002062E065
:10181800032B1AD10533D4E7414B5A6D0C231340DF
:10182800082B14D005D8002B13D0042BC9D01023B3
:10183800C7E70C2B0FD1043BC3E70023C1E7022302
:10184800BFE70023BDE71023BBE71023B9E7022356
:10185800B7E70023B5E71023B3E70023B1E7042B6C
:101868002ED023D8002B25D0022B1DD12D48636AFA
:101878005B002D4A995AFEF751FC400063685B08EB
:10188800C0186168FEF74AFC0200103A274B9A42DA
:1018980034D882B20F239A434008083B18401043BB
:1018A8002368D860002016E0012014E0082BDED061
:1018B800012010E000F000FF0028D8D100200AE045
:1018C80000F0D2FDF8E7012005E0082B02D18020C6
:1018D800000285E7012001236A22A352023AA3529B
:1018E80000236367A36710BD00F0E6FE002800D060
:1018F80076E70020EFE700F0B7FDF7E70120EAE719
:101908000120E8E7F369FFCFFFCFFFFFFFF4FF11E6
:10191800003801400044004000480040004C0040AE
:10192800001002400024F400A0370008EFFF000078
:10193800836ADB0706D5026853682C490B40C16AE5
:101948000B435360836A9B0706D50268536828498E
:101958000B40016B0B435360836A5B0706D5026833
:10196800536824490B40416B0B435360836A1B0740
:1019780006D50268536820490B40816B0B435360BE
:10198800836ADB0606D5026893681C490B40C16B65
:101998000B439360836A9B0606D5026893681849CF
:1019A8000B40016C0B439360836A5B060BD502689E
:1019B800536814490B40416C0B43536080235B030D
:1019C800426C9A420AD0836A1B0606D5026853689D
:1019D8000D490B40C16C0B43536070470268536854
:1019E8000A490B40816C0B435360ECE7FFFFFDFF96
:1019F800FFFFFEFFFFFFFBFFFF7FFFFFFFEFFFFF84
:101A0800FFDFFFFFFFFFEFFFFFFFF7FFFFFF9FFF76
:101A1800F8B5CE46474680B506000D001700994632
:101A2800089B98463368DC692C40641B63425C4120
:101A3800BC4257D143460133F4D001F09DF94B46DF
:101A4800C01A40452ED84346002B2BD033681A685D
:101A58005207E7D5DA691205E4D5802212011A6225
:101A6800EFF31080012282F3108831680B68204C54
:101A780023400B6080F31088EFF3108082F3108806
:101A880031688B6893438B6080F3108820238732FA
:101A9800B3500432B3500432B35064330022F254CA
:101AA800032020E0EFF31080012282F310883168D0
:101AB8000B680F4C23400B6080F31088EFF3108005
:101AC80082F3108831688B6893438B6080F31088A9
:101AD80020238732B3500432B35064330022F254C7
:101AE800032000E00020C0BCB946B046F8BDC0469F
:101AF8005FFEFFFFF0B5C64600B582B004000D00DA
:101B080090461E008823C358202B5CD100295FD043
:101B1800002A5FD080235B0182689A4204D103695E
:101B2800002B01D1CB0757D490230022E250083B69
:101B38002132E25001F020F9070054234246E252D4
:101B48000233E25280235B01A2689A4202D000234A
:101B5800984613E02369002B25D0002398460DE012
:101B680043461B882268DB05DB0D936202239C46F3
:101B7800E0445623E25A013A92B2E2525623E35A1B
:101B88009BB2002B12D000963B000022802120003F
:101B9800FFF73EFF002821D1002DE1D02A782368E5
:101BA8009A620135E5E7A8460025E7E700963B007D
:101BB800002240212000FFF72BFF002810D18823A6
:101BC8002022E25000E0022002B080BCB846F0BDFE
:101BD8000120F9E70120F7E70120F5E70320F3E703
:101BE8000320F1E730B583B0040090230022C250EF
:101BF80001F0C2F8050022681268130710D42368A0
:101C08001B685B0719D420238822A3500432A350F1
:101C18000023E3662367083AA354002003B030BDCD
:101C280080210C4B00930300002289032000FFF75A
:101C3800EFFE0028E3D00320F0E78021054B009356
:101C48002B000022C9032000FFF7E2FE0028DAD0AB
:101C58000320E3E7FFFFFF0110B5041E30D08823FF
:101C6800C358002B22D088232422E250226813680C
:101C780001218B4313602000FFF762FD012814D077
:101C8800A36A002B18D1226853680E490B40536091
:101C9800226893682A218B43936022681368293944
:101CA8000B4313602000FFF79DFF10BD8433002213
:101CB800C254FEF7F1FDD6E72000FFF739FEE2E750
:101CC8000120F2E7FFB7FFFF10B581655C23C25220
:101CD8000233C252002343678368802149018B4243
:101CE80008D0002B15D10369002B0ED16033FF21DA
:101CF800C15215E00369002B03D160334649C15234
:101D08000EE06023FF21C1520AE060237F21C15207
:101D180006E0802149058B4231D060230021C15261
:101D280090230021C150043B2231C150EFF3108CA5
:101D3800012484F3108801688B6823438B608CF33B
:101D4800108880239B05416E994223D080235B0134
:101D580082689A424CD0314B43670369002B4DD0BF
:101D6800EFF31081012383F3108802681068203391
:101D7800FF330343136081F31088002010BD03690B
:101D8800002B03D160337F21C152C9E760233F2173
:101D9800C152C5E76823C35A9342D7D880235B0151
:101DA80082689A421ED01E4B43670369002B0BD0F2
:101DB800EFF31081012383F3108802681468FF335E
:101DC8002343136081F31088EFF31081012383F319
:101DD80010880268906880235B050343936081F351
:101DE8001088CAE70369002BDDD10E4B4367DCE797
:101DF8000369002BAFD10C4B4367AEE7EFF31081BB
:101E0800012383F3108802681368202003431360BA
:101E180081F31088B1E7C046FF0100008112000875
:101E2800ED130008991500083913000870B58C23C4
:101E3800C358202B23D1002923D0002A23D0802364
:101E48005B0184689C4204D10369002B01D1CB0754
:101E58001BD40023C36603685B681B020CD5EFF331
:101E6800108C012383F31088046825688023DB0421
:101E78002B4323608CF31088FFF726FF00E0022035
:101E880070BD0120FCE70120FAE70120F8E7000017
:101E9800F8B50400436E002B05D101336A22835242
:101EA800023A8352F8BD026895686D0E07231D40FB
:101EB8009268520F1340084FF85CC000074EF15C5F
:101EC800FEF7B6F96A23E052785DC000715DFEF74F
:101ED800AFF96823E052E5E7C0370008B8370008D3
:101EE800704770477047000070B58423C35C012BAE
:101EF80015D08424012606558825242343510268D9
:101F080013681168B1431160064A13400022426603
:101F180001680B60202343510255002070BD022048
:101F2800FCE7C046FFFFFFDFF8B504000A00842382
:101F3800C35C012B1BD084250120605588262423EF
:101F4800A35123681F681968814319602068836852
:101F5800DB00D908114381602000FFF799FF23684F
:101F68001F602023A351002363550020F8BD0220E1
:101F7800FCE70000F8B504000B008422825C012A0B
:101F88001BD084250120605588262422A25122686E
:101F980017681168814311602268916808480140F8
:101FA800194391602000FFF773FF23681F60202307
:101FB800A351002363550020F8BD0220FCE7C0466A
:101FC800FFFFFFF170B582B0041E00D129E203685B
:101FD800DB0739D5C14A916838230B40D168032201
:101FE8000A40102B26D0082B26D063688022520284
:101FF80093427FD0A022D202934200D181E0B74B16
:102008001A68B7490A401A601A68B6490A401A603D
:102018006368002B00D180E000F0AEFE0500AF4BF6
:102028001B689B0310D400F0A7FE401B6428F6D958
:102038000320F7E1032AD6D1A84B1B689B0303D5DD
:102048006368002B00D1EFE123689B0731D5A34AD1
:10205800936838210B40D16803220A40102B6AD0BC
:10206800002B6BD19D4A1268520503D5E268002AFD
:1020780000D1DBE1994842689B490A40616909023D
:102088000A434260002B0DD1036898490B4021692F
:102098000B4303600368DB0A07221A40944BD340C2
:1020A800944A1360944B186800F01AFE002800D078
:1020B800BEE123681B0700D481E0884B9A68382367
:1020C8001340182B73D0A369002B00D1B4E0834AC6
:1020D800136E01210B43136600F04EFE05007F4B83
:1020E8001B6E9B076BD400F047FE401B0228F6D9F5
:1020F800032097E1794A116880235B020B43136040
:1021080086E7764B19688022D2020A431A6019685A
:10211800802252020A431A607AE700F02DFE050079
:102128006E4B1B689B038FD500F026FE401B64286E
:10213800F6D9032076E1022A92D193E7E368002BCF
:1021480022D0664A136869490B4021690B43136022
:10215800116880235B000B43136000F00DFE05003F
:102168005E4B1B685B0506D400F006FE401B022888
:10217800F6D9032056E159494B685B4A1340626916
:10218800120213434B6094E7544A13685B490B40AF
:10219800136000F0F1FD0500504B1B685B0588D506
:1021A80000F0EAFD401B0228F6D903203AE14B4B28
:1021B8001B6E9B0703D5A369002B00D13AE1236866
:1021C8005B0700D4A2E0454B9A6838231340202BC4
:1021D80045D0424BDB6BDB004AD4404AD16B8020B0
:1021E80040050143D163D36B03400193019B012553
:1021F800434B1B68DB053DD5A368012B4ED0052B4F
:1022080052D0364BDA6D01218A43DA65DA6D033133
:102218008A43DA65A368002B50D000F0ADFD0600B4
:102228002E4BDB6D9B076FD400F0A6FD801B354B52
:102238009842F5D90320F5E0284A136E01218B4313
:10224800136600F099FD0500244B1B6E9B07B6D55D
:1022580000F092FD401B0228F6D90320E2E01F4B54
:10226800DB6D9B0752D5A368002B4FD10120D9E025
:102278000025BDE7224A116880235B000B431360E9
:1022880000F07AFD06001E4B1B68DB05B4D400F095
:1022980073FD801B0228F6D90320C3E00F4AD36DD3
:1022A80001210B43D365B5E70C4BDA6D04210A43D2
:1022B800DA65DA6D03390A43DA65ABE700F05CFDED
:1022C8000600064BDB6D9B071ED500F055FD801BF5
:1022D8000C4B9842F5D90320A4E0C04600100240F8
:1022E800FFFFFEFFFFFFFBFFFF80FFFFFFC7FFFFB2
:1022F8000024F4000C00002008000020FFFEFFFF6F
:102308000070004088130000012D1ED0E369002BE7
:1023180000D191E04F4A916838220A40102A5ED0D5
:10232800022B18D04B4A13684B490B40136000F03E
:1023380023FD0400474B1B689B0149D500F01CFD99
:10234800001B0228F6D903206CE0424AD36B4349AC
:102358000B40D363DAE73F4A13683F490B401360E9
:1023680000F00AFD05003B4B1B689B0106D500F0F9
:1023780003FD401B0228F6D9032053E0354AD368F1
:1023880037491940236A606A0343A06A000203437D
:10239800E06A0343206B03430B43D3601168802337
:1023A8005B040B431360D16880235B050B43D36048
:1023B80000F0E2FC0400274B1B689B0106D400F0E8
:1023C800DBFC001B0228F6D903202BE0002029E0C3
:1023D800204AD36823490B40D360002022E0012B18
:1023E8002CD01C4BDA6803231340216A8B4227D177
:1023F80070231340616A8B4224D1FE21C901114028
:10240800A36A1B0299421FD1F8239B031340E16A78
:102418008B421BD1520F5207236B9A4218D10020CE
:1024280000E0012002B070BD0120FBE70120F9E7C0
:102438000120F7E70120F5E70020F3E70120F1E7A5
:102448000120EFE70120EDE70120EBE70120E9E7B4
:102458000120E7E700100240FFFFFFFEFFFFFFEF4C
:102468008C80C11FFCFFFEEF10B52A4B9B683822F9
:102478001A4207D1274B1A68D20A07231340264865
:10248800D84010BD234B9A6838231340082B3BD003
:10249800204B9A6838231340102B0DD01D4B9A6897
:1024A80038231340202B31D01A4B9A683823134015
:1024B800182B26D00020E4E7164AD1680D3B0B40C4
:1024C800D2681209072111400131032B0FD012489D
:1024D800FDF724FE0F4BDA68120A7F231340584396
:1024E8000C4BD968490F0131FDF718FEC9E70B48B5
:1024F800FDF714FE074BDA68120A7F23134058438E
:10250800EEE7FA20C001BCE70448BAE780200002E1
:10251800B7E7C046001002400024F40000127A0019
:1025280070B504000D00002800D1AAE0574B1A68C6
:10253800072313408B4221D323689A070ED55B07E4
:1025480005D5534A9168E023DB010B439360504A59
:10255800936850490B40A1680B4393602368DB07DD
:1025680054D56368012B20D0022B3BD0002B3FD1E0
:10257800474A126852051CD401206AE0434A13688E
:1025880007218B432B43136000F0F6FB06003F4BFB
:102598001A6807231340AB42CED000F0EDFB801B36
:1025A8003D4A9042F3D9032053E0394A1268920316
:1025B80069D537498A680720824313438B6000F046
:1025C800DBFB0600324B9B6838221A406368DB004D
:1025D8009A421BD000F0D0FB801B2F4B9842F1D9B8
:1025E800032036E02A4A12689201E2D4012030E042
:1025F800032B05D0264AD26D9207DAD4012028E0B1
:10260800234A126E9207D4D4012022E01F4B1A6885
:1026180007231340AB421DD823685B0706D51C4A25
:1026280093681E490B40E1680B439360FFF71CFF5A
:10263800174B9A68120A0F2313409B00184A9A589E
:102648001F231340D840174B1860174B186800F029
:1026580047FB70BD0D4A136807218B432B4313605A
:1026680000F08AFB0600094B1A6807231340AB42A7
:10267800D2D000F081FB801B074B9842F3D903208E
:10268800E7E70120E5E70120E3E7C0460020024034
:1026980000100240FFF0FFFF88130000FF8FFFFFCC
:1026A800C83700080C00002008000020014B1868FB
:1026B8007047C0460C00002010B5FFF7F7FF064B27
:1026C8009A68120B072313409B00044A9A581F2349
:1026D8001340D84010BDC04600100240083800081A
:1026E800F0B583B0040003689B0362D5584BDB6BDD
:1026F800DB001ED4564AD16B802040050143D163CC
:10270800D36B03400193019B0126524A1168802331
:102718005B000B43136000F02FFB05004D4B1B685B
:10272800DB0508D400F028FB401B0228F6D9032556
:1027380002E00026E9E70025002D23D1444BD96D9E
:10274800C02292000B001340114210D0A2699A4295
:102758000DD03F4AD36D40490B40D06D80214902CE
:102768000143D165D16D3D480140D165D365DB0793
:1027780010D4002D06D1364AD36D37490B40A169D4
:102788000B43D365012E15D1314AD36B34490B4025
:10279800D3630FE000F0F0FA07002D4BDB6D9B07C9
:1027A800E7D400F0E9FAC01B2E4B9842F5D903256F
:1027B800DFE700252368DB0706D5254A536D03218B
:1027C8008B4361680B43536523689B0706D5204AF2
:1027D800536D0C218B43A1680B43536523689B06FB
:1027E80006D51B4A536D20490B40E1680B435365DE
:1027F80023685B040BD5164A536D9B009B086169DF
:102808000B4353658023DB0562699A4211D0236824
:102818001B050BD50E4A536D14490B4021690B4318
:10282800536522698023DB019A4209D0280003B04E
:10283800F0BD074AD16880235B020B43D360E6E70B
:10284800034AD16880235B020B43D360EEE7C0469E
:102858000010024000700040FFFCFFFFFFFFFEFF7A
:10286800FFFFFFEF88130000FFCFFFFFFF3FFFFFD1
:102878007047704710B52B4B1B692B4A13402B4AE6
:102888009268510721D5294A1469002B2AD1254B72
:102898001B69DB070CD5234B01221A61234B9B686C
:1028A800022B2CD0214B00229A602000FFF7E0FF7A
:1028B8001E4B9B68002B07D11A4A53691C490B40D1
:1028C80053611A4B00221A7010BD16484169914392
:1028D800416118490A4202D0144AD468D5E7134A1C
:1028E8005469D2E7114A51680B4353600D4B0E49A6
:1028F8001961002393602000FFF7BBFFC7E70B4A6D
:102908009369013B9361002B03D1084B00229A6025
:10291800CBE713005269511C5961186900F00CF893
:10292800C3E7C04600200240FA8300007C02002072
:10293800FFFFFFFC01000400044A536904480340F8
:10294800C9001943034B19435161704700200240E5
:1029580007E0FFFF02000100F0B500235AE0846899
:102968005F000326BE40B4432600CC68BC40344315
:102978008460446894434A681609012232409A40A8
:102988002243426056E0DC080834A4002658053289
:102998001A4092000F279740BE430F6997403A00AC
:1029A800324322505AE0032600E00026A6403400B5
:1029B8003C43434E1832920094513468EA4326004F
:1029C800AE434F68FF0201D52C4326003C4C2660DD
:1029D8006468260016404F68BF0201D52C432600C4
:1029E800374C66608426A459260016404F68BF03FA
:1029F80001D52C432600324C8427E6518026A45961
:102A080022404E68F60301D52A0022432C4D80242B
:102A18002A5101330C682200DA404FD001229A4033
:102A2800250015401442F4D003244E683440013C7C
:102A3800012C94D903224C682240032A09D0C26889
:102A48005E000324B440A24314008A68B2402243C3
:102A5800C26003224C682240022A94D004685E00B7
:102A680003221700B740BC434F683A40B2402243A4
:102A78000260C02292024C681442CAD09A0814001C
:102A88001834A4000E4EA75903241C40E4000F2656
:102A9800A640B743A026F605B04286D0094EB042FC
:102AA80008D0094EB04207D0084EB04200D17AE7AC
:102AB80005267BE7012679E7022677E7F0BDC046C1
:102AC800001802400004005000080050000C00509C
:102AD800002A01D0816170478162FCE730B5002887
:102AE80036D02523C35C022B06D00423C3632033CE
:102AF8000022C254012030BD026813680E218B43A6
:102B08001360426C136813490B40136001680A682C
:102B180001239A430A60104C62681C21056C294005
:102B28008B4013436360836CC26C5A60036D002B47
:102B380006D01A6807490A401A60436D826D5A60C8
:102B480025230122C254013B0022C2540020D2E7AF
:102B58000120D0E7FFFEFFFF0000024070B52523EB
:102B6800C35C022B03D00423C363012070BD026839
:102B780013680E218B43136001680A6801239A4386
:102B88000A60416C0A68134C22400A60124C626861
:102B98001C21056C29408B4013436360836CC26C15
:102BA8005A60036D002B06D01A680A490A401A6059
:102BB800436D826D5A6025230122C254013B0022D5
:102BC800C254836B002B02D098470020CEE7002028
:102BD800CCE7C046FFFEFFFF0000024010B5104AD8
:102BE800136810490B400343136080239B009842ED
:102BF80001D0002010BD0C4B1B685800C0184000C5
:102C08000A49FDF78BFA0130054B5B695B0503D573
:102C1800002803D00138F7E70020EBE70320E9E7B5
:102C280000700040FFF9FFFF0C00002040420F0039
:102C380070B5002811DB8308134EC0339B009D59E3
:102C480003242040C000FF2214008440A5438901CA
:102C58000A4082402A439A5170BD0F230340083B23
:102C68009B0806339B00094A944663445C68032228
:102C78001040C000FC3215008540AC4389010A4071
:102C8800824022435A60E7E700E100E000ED00E0FF
:102C9800002805DB1F2318401E3B8340014A1360B0
:102CA8007047C04600E100E0013880235B04984289
:102CB8000FD2094A50600948036A1B021B0AC02147
:102CC80009060B4303620023936007331360002057
:102CD80070470120FCE7C04610E000E000ED00E08E
:102CE80010B50400114B1978002901D1012010BD3D
:102CF800FA208000FDF712FA01000D4B1868FDF765
:102D08000DFAFFF7D1FF00280DD1032C01D90120BE
:102D1800EDE70130002221004042FFF789FF054B13
:102D28001C600020E3E70120E1E7C0460400002022
:102D38000C0000200800002010B5084A1168802304
:102D48005B000B4313600320FFF7CAFF041E02D089
:102D58000124200010BDFDF755FDFAE700200240D0
:102D6800034B1B78034A11685B1813607047C04611
:102D78000400002098020020014B18687047C046E4
:102D88009802002070B50400FFF7F6FF0500631CE9
:102D980002D0044B1B78E418FFF7EEFF401BA0425B
:102DA800FAD370BD04000020034A136803490B409E
:102DB800034313607047C04600000140FFF9FFFF5E
:102DC800704700000D488546FFF7FAFF0C480D498B
:102DD8000D4A002302E0D458C4500433C4188C426E
:102DE800F9D30A4A0A4C002301E013600432A242D4
:102DF800FBD300F011F8FDF753FCFEE7009000202C
:102E080000000020740000206438000874000020CE
:102E1800B0020020FEE7000070B500260C4D0D4CF6
:102E2800641BA410A64209D1002600F099FC0A4DA3
:102E38000A4C641BA410A64205D170BDB300EB5820
:102E480098470136EEE7B300EB5898470136F2E7AA
:102E58005C3800085C3800085C38000860380008F6
:102E680003008218934200D1704719700133F9E7C3
:102E78000EB400B50B499CB01DAB029006900791AB
:102E880004910948094904CB0591006802A90193F6
:102E980000F070F80023029A13701CB008BC03B04D
:102EA8001847C046FFFFFF7F100000200802FFFF01
:102EB800F0B58E6885B007000C00039201939E421E
:102EC8003CD890238A89DB001A4234D009692368E8
:102ED80060695B1A029303234343DD0FED18019BDE
:102EE800029801331B186D10AB4200D91D00530521
:102EF80032D52900380000F053FB061E09D10C23F7
:102F08003B6040230120A28940421343A38105B0BE
:102F1800F0BD029A216900F0BAFAA389144A1A404E
:102F280080231343A381029B2661F61826606561FE
:102F3800019EED1AA560019B9E4200D9019E3200B8
:102F48000399206800F0ACFAA36800209B1BA360DB
:102F580023689E192660DAE72A00380000F096FBFD
:102F6800061EE0D13800216900F0AEFAC7E7C04676
:102F78007FFBFFFFF0B5A1B003901D008B890F0008
:102F880016001B0611D50B69002B0ED1402100F04D
:102F980007FB38603861002805D10C23039A0138F3
:102FA800136021B0F0BD40237B61002308AC63614E
:102FB800203363761033A376079535002B78002BE2
:102FC80001D0252B47D1AB1B0593B5420CD032005D
:102FD80039000398FFF76CFF431C00D1AEE062692B
:102FE800059B9446634463612B78002B00D1A5E0D0
:102FF800012200235242626004A9543252186E1C06
:103008002360E360A3601370A365052231785448F8
:1030180000F032FA751C00281FD12268D30604D5A7
:10302800532304A95B1820211970130704D55323CF
:1030380004A95B182B21197033782A2B16D0350078
:1030480000210A20E3682A786E1C303A092A4ED9F2
:10305800002911D117E00135B0E7414B2268C01AA9
:103068000123834013432E002360CEE7079B191DDD
:103078001B680791002B01DB0B9304E05B42E360C4
:103088000223134323602B782E2B0AD16B782A2B2B
:1030980035D1079B02351A1D1B680792002B2BDBC5
:1030A8000993304E03223000297800F0E5F9002812
:1030B80006D04023801B83402268013513432360D8
:1030C8002978062228486E1C217600F0D5F90028B8
:1030D8003CD0264B002B25D10722079B073393436F
:1030E800083307936369049A9B18636165E7434350
:1030F800350001219B18A6E701235B42D0E7002396
:103108000A201A000135636029786E1C30390929B4
:1031180003D9002BC5D00992C3E7424335000123E8
:103128005218F1E707AB00933A002100104B0398BF
:1031380000E000BF0490049B0133D3D1BB890D98F4
:103148005B0600D42DE7012040422AE707AB009335
:103158003A002100064B039800F07CF8EAE7C046E5
:10316800283800082E38000832380008000000000F
:10317800B92E0008F7B5150001938A680B690C0091
:103188000090934200DA130022002B604332127839
:10319800002A01D001332B6023689B0602D52B68D7
:1031A80002332B602268062317001F401A4227D0DB
:1031B800230043331B785A1E93412268920630D469
:1031C800220001990098089E4332B047431C25D03D
:1031D800062320682A68E16800250340042B03D1F0
:1031E8008D1AEB43DB171D40A3682269934201DD6A
:1031F8009B1AED180027BD4220D1002010E00137AE
:10320800E3682A689B1ABB42D2DD22000123019998
:103218000098089E1932B047431CF0D10120404263
:10322800FEBD3020E1184331087021005A1C453199
:103238000978A218433202331170C1E72200012332
:1032480001990098089E1A32B047431CE6D001370E
:10325800D1E70000F0B58BB006920A00433207931D
:10326800059004920A7E0C00109B782A07D8622ADF
:1032780009D8002A00D1C1E0582A00D18CE02600E4
:103288004236327022E0100063381528F7D8FCF770
:103298003BFF16001F00F6FFF6FFF6FFF6FF1F00C4
:1032A800F6FFF6FFF6FFF6FFA80036009A00F6FFD5
:1032B800F6FFB900F6FF3600F6FFF6FF9E0026007F
:1032C8001A684236111D1960136833700123A7E08C
:1032D800086819680A1D05060BD50D681A60002DC7
:1032E80003DA2D23049A6D421370614B0A27039366
:1032F8001BE00D681A604106F1D52DB2EFE70D68A5
:103308001968081D18602E0601D50D6803E06D06C2
:10331800FBD50D68ADB2564B082703936F2A00D032
:1033280002372300002243331A706368A360002B1E
:1033380003DB0422216891432160002D02D1049E01
:10334800002B0CD0049E28003900FCF76DFF039B6E
:10335800013E5B5C33702B0005009F42F3D9082FB8
:1033680009D12368DB0706D563682269934202DC2A
:103378003023013E3370049B9B1B2361079B210074
:1033880000930598069B09AAFFF7F4FE431C4CD14D
:10339800012040420BB0F0BD45310A70344A039217
:1033A8001A68216820CA1A60080616D5CB0702D504
:1033B8002023194321601027002DB2D12023226831
:1033C8009A432260ADE7202209680A43226022005E
:1033D800782145321170274AE1E74806E6D5ADB2B3
:1033E800E4E71A680D68101D4969186013682E060D
:1033F80001D5196002E06D06FBD519800023049EF3
:103408002361BBE71A68111D196016680021300096
:10341800626800F031F8002801D0801B60606368A2
:1034280023610023049A1370A8E7236932000699E0
:103438000598079DA847431CAAD023689B0715D465
:10344800099BE0689842A5DA1800A3E72200012347
:1034580006990598079E1932B047431C98D0013544
:10346800E368099A9B1AAB42F0DCE9E70025F7E725
:10347800393800084A380008C9B28218904201D188
:103488000020704703788B42FBD00130F6E7002319
:1034980010B59A4200D110BDCC5CC4540133F8E792
:1034A80010B5884202D98B18984203D3002307E04D
:1034B8008B5C8354013AFBD210BDCC5CC4540133FD
:1034C8009A42FAD1F8E7000070B50500002910D03B
:1034D8000C1F2368002B00DAE418280000F018F904
:1034E8001D4A1368002B05D163601460280000F0A2
:1034F80017F970BDA34208D9216860188342F3D137
:1035080018685B6841182160EEE71A005B68002BB9
:1035180001D0A342F9D911685018A0420BD12068F4
:103528000918501811608342E0D118685B68411887
:1035380011605360DAE7A04202D90C232B60D5E76B
:1035480021686018834203D118685B6841182160BC
:1035580063605460CAE7C0469C02002070B50F4EF5
:103568000D0031680400002902D100F0BFF8306076
:103578002900200000F0BAF8431C0AD00323C51C18
:103588009D43A84207D0291A200000F0AFF8431C39
:1035980001D101256D42280070BDC046A00200205F
:1035A800F7B50322CB1C9343083306001F000C2BEE
:1035B80032D20C27B94231D8300000F0A9F8324D88
:1035C8002B681C00002C2ED139003000FFF7C6FFF5
:1035D8000400431C1ED12C682500002D4AD1236805
:1035E8002900E3183000019300F080F8019B834222
:1035F80043D123680337FF1A03239F4308370C2F4F
:1036080000D20C2739003000FFF7A8FF431C34D044
:103618002368DF19276013E0002BCBDA0C23002581
:1036280033602800FEBD2268D11B20D40B2917D98E
:10363800E2192760A34211D12A60636811605360C0
:103648003000250000F06CF807220B35231D954348
:10365800EA1A9D42E5D05B1BA350E2E75A60ECE70B
:103668006268A34201D12A60EAE75A60E8E72300CA
:103678006468A7E72C006D68AFE70C23300033605F
:1036880000F04EF8CDE7C0469C020020F7B50700D1
:103698000E001400002905D11100FFF781FF050075
:1036A8002800FEBD002A03D1FFF70EFF2500F7E72B
:1036B80000F03EF80190844203D835004308A34245
:1036C800EED321003800FFF76BFF051EE8D0019B01
:1036D80022009C4200D91A0031002800FFF7D7FECB
:1036E80031003800FFF7F0FEDAE70000002370B57C
:1036F800064D040008002B6000F024F8431C03D199
:103708002B68002B00D0236070BDC046A4020020A7
:1037180010B5024800F014F810BDC046A8020020F9
:1037280010B5024800F00DF810BDC046A8020020F0
:103738000B1F1B68181F002B01DA0B58C0187047A5
:1037480070477047044A03001068002802D0C31865
:10375800136070470148FAE7AC020020B00200206D
:10376800F8B5C046F8BC08BC9E467047F8B5C046D8
:08377800F8BC08BC9E46704736
:1037800025303278253032782C25642C25642C2580
:10379000642C25642C25642C25642C25640A0000E7
:1037A000010002000400060008000A000C001000DE
:1037B000200040008000000108040204080101010B
:1037C00001010103070100000000000000000000EB
:1037D00000000000000000000000000000000000E9
:1037E00000000000000000000100000002000000D6
:1037F00003000000040000000600000007000000B5
:1038000008000000090000000000000000000000A7
:1038100000000000000000000100000002000000A5
:103820000300000004000000232D302B2000686CF2
:103830004C006566674546470030313233343536D3
:10384000373839414243444546003031323334350C
:0C38500036373839616263646566000039
:04385C00E10000087F
:04386000B9000008A3
:10386400020201AA01000000040000000024F40088
:103874001400002000000000000000000000000010
:103884000000000000000000000000000000000034
:103894000000000000000000000000000000000024
:1038A4000000000000000000000000000000000014
:1038B4000000000000000000000000000000000004
:1038C40000000000000000000000000000000000F4
:0438D40000000000F0
:0400000508002DCDF5
:00000001FF
